:100000000C9482010C94B3010C94B3010C94B301D1
:100010000C94B3010C94B3010C94B3010C94B30190
:100020000C94B3010C9494090C9494090C949409C5
:100030000C94B3010C94B3010C94B3010C94B30170
:100040000C94B3010C94B3010C94B3010C94B30160
:100050000C94B3010C94B3010C94B3010C944A09B1
:100060000C94B3010C9414090C94EA080C94B30199
:100070000C94B3010C94B3010C94B3010C94B30130
:100080000C94B3010C94B3010C94B3010C94B30120
:100090000C94B4080C948A080C94B3010C94B3012A
:1000A0000C94B3010C94B3010C94B3010C94B30100
:1000B0000C94B3010C94B3010C94B3010C94B301F0
:1000C0000C94B3010C94B3010C94B3010C94B301E0
:1000D0000C94B3010C94B3010C94B3010C94B301D0
:1000E0000C94B3010C9462050C941C040C94FB0951
:1000F0000C947F050C9400040C9467050C946C051B
:100100000C94E5030C940E040C9458050C941B04F9
:100110000C9470030C94F6030C94E9030C940404FF
:100120000C94FA030C94ED030C9420040C94DB0360
:100130000C9469050C94A4020C9450050C94E103F2
:100140000C9453070C94C6020C9412040C94F00304
:100150000C9408030C9480050C9416040C949502DE
:100160000C9408040C9468020C94B802000021005E
:10017000240027002A002D00300033000101000078
:10018000040107010A0100002200250028002B00BD
:100190002E003100340002010000050108010B01AE
:1001A000000020002300260029002C002F00320030
:1001B0000001000003010601090105050505070509
:1001C00008080808020202020A0A080804040404D3
:1001D00001010101010101010303030303030303FF
:1001E000040707070C0C0C0C0C0C0C0C020202028E
:1001F00006060606060606060B0B0B0B0B0B0B0B77
:100200000102102020080810204010204080020128
:10021000020108040201010204081020408080400D
:10022000201008040201800402018040201008040C
:1002300002010804020101020408102040800102AA
:1002400004081020408000000A0B02090C0D0E0863
:10025000070304010000000000000000000000008F
:10026000000000000000000000000000000000008E
:10027000000012111000000000000000000000004B
:1002800000000000000000000000000042617564F2
:1002900020726174653A20005061636B6574206C54
:1002A000656E3A2000446576696365206164647216
:1002B0006573733A20005365637572697479206CB5
:1002C0006576656C3A200043617061636974793AC0
:1002D00020005379732049443A20307800537461E8
:1002E0007475733A2030780052656164696E6720D6
:1002F00073656E736F7220706172616D6574657283
:100300007300FB0911241FBECFEFD1E2DEBFCDBFCA
:1003100000E00CBF2AE0ACE0B7E001C01D92A23AB9
:10032000B207E1F717E0A0E0B2E0E8E9F6E200E0AA
:100330000BBF02C007900D92AC30B107D9F711E0A6
:10034000C2E8D1E000E006C021970109802FFE013C
:100350000E943213C138D10780E00807A9F70E9434
:10036000970A0C944A130C940000DF92EF92FF92CC
:100370000F931F93CF93DF93EC018091840A9091A8
:10038000850A6981DC01ED91FC910190F081E02DFD
:1003900019958091840A9091850ADC01ED91FC9178
:1003A0000190F081E02D688119958091840A9091E7
:1003B000850ADC01ED91FC910190F081E02D6A81CC
:1003C00019958091840A9091850ADC01ED91FC9148
:1003D0000190F081E02D6B8119958091840A9091B4
:1003E000850ADC01ED91FC910190F081E02D6C819A
:1003F00019958091840A9091850ADC01ED91FC9118
:100400000190F081E02D6D8119958091840A909181
:10041000850ADC01ED91FC910190F081E02D6E8167
:1004200019950F8118850E5F1F4F8091840A909156
:10043000850AE12EFF24DC01ED91FC910190F08111
:10044000E02D6E2D19958091840A9091850ADC012A
:10045000ED91FC910190F081E02D602F19950E0D2A
:100460001F2D111D8E81080F111DD12C8091840A22
:100470009091850ADC01ED91FC910190F081E02DD5
:10048000ED2CF12C2F813885E216F30660F4EC0E8A
:10049000FD1ED70119966C911995F7018185080FFA
:1004A000111DD394E3CF612F19958091840A909107
:1004B000850ADC01ED91FC910190F081E02D602F27
:1004C000DF91CF911F910F91FF90EF90DF901994E2
:1004D000AF92BF92CF92DF92EF92FF920F931F9352
:1004E000CF93DF936C017B018B01040F151FEB0190
:1004F0005E01AE18BF08C017D10759F06991D60147
:10050000ED91FC910190F081E02DC6011995892BA8
:1005100079F7C501DF91CF911F910F91FF90EF9077
:10052000DF90CF90BF90AF900895FC01538D448D24
:10053000252F30E0842F90E0821B930B541710F08E
:10054000CF96089501970895FC01918D828D98179B
:1005500061F0A28DAE0FBF2FB11D5D968C91928D73
:100560009F5F9F73928F90E008958FEF9FEF0895A4
:10057000FC01918D828D981731F0828DE80FF11D6D
:10058000858D90E008958FEF9FEF0895FC01918D88
:10059000228D892F90E0805C9F4F821B91098F7381
:1005A0009927089585EB99E00E94C60221E0892BE6
:1005B00009F420E0822F089588E199E00E94C602A4
:1005C00021E0892B09F420E0822F0895FC01A48DFD
:1005D000A80FB92FB11DA35ABF4F2C91848D90E065
:1005E00001968F739927848FA689B7892C93A08948
:1005F000B1898C91837080648C93938D848D9813D2
:1006000006C00288F389E02D80818F7D8083089564
:10061000EF92FF920F931F93CF93DF93EC0181E052
:10062000888F9B8D8C8D98131AC0E889F9898081F9
:1006300085FF15C09FB7F894EE89FF896083E8892C
:10064000F98980818370806480839FBF81E090E01E
:10065000DF91CF911F910F91FF90EF900895F62EAB
:100660000B8D10E00F5F1F4F0F731127E02E8C8D45
:100670008E110CC00FB607FCFACFE889F98980818A
:1006800085FFF5CFCE010E94E602F1CFEB8DEC0F96
:10069000FD2FF11DE35AFF4FF0829FB7F8940B8FA7
:1006A000EA89FB8980818062CFCF0F931F93CF931C
:1006B000DF938C01D0E0C0E0F801EC0FFD1F6491E6
:1006C000662341F088E199E00E940803892B11F02C
:1006D0002196F2CFCE01DF91CF911F910F91089516
:1006E000CF93DF93EC01888D8823B9F0AA89BB8969
:1006F000E889F9898C9185FD03C0808186FD0DC054
:100700000FB607FCF7CF8C9185FFF2CF808185FF74
:10071000EDCFCE010E94E602E9CFDF91CF9108959F
:1007200080E090E0892B29F00E94DC0281110E9478
:10073000000080E090E0892B29F00E94D202811114
:100740000E94000080E090E0892B49F080E090E07A
:10075000892B29F00E94000081110E94000080E096
:1007600090E0892B49F080E090E0892B29F00E94ED
:10077000000081110C94000008958150823108F02E
:100780005AC0E82FF0E08827E753FC4F8F4F0C94B6
:100790003213E903ED03DB03E103E5031B04F0037C
:1007A000F603FA030004040408040E0412041B04F4
:1007B00016041C042004809180008F7780938000B1
:1007C0000895809180008F7DF9CF80918000877F90
:1007D000F5CF84B58F7784BD089584B58F7DFBCF29
:1007E0008091B0008F778093B00008958091B00021
:1007F0008F7DF9CF809190008F778093900008953E
:10080000809190008F7DF9CF80919000877FF5CF08
:100810008091A0008F778093A00008958091A00020
:100820008F7DF9CF8091A000877FF5CF8091200147
:100830008F77809320010895809120018F7DF9CFDB
:1008400080912001877FF5CFCF93DF93282F30E071
:10085000F901EA5BFD4F8491F901E050FE4FD4911C
:10086000F901E654FE4FC491CC23A1F081110E94FE
:10087000BD03EC2FF0E0EE0FFF1FE056FE4FA591F9
:10088000B491EC91ED2381E090E009F480E0DF91F8
:10089000CF91089580E090E0FACF1F93CF93DF933C
:1008A000282F30E0F901EA5BFD4F8491F901E05017
:1008B000FE4FD491F901E654FE4FC491CC23A9F028
:1008C000162F81110E94BD03EC2FF0E0EE0FFF1FE9
:1008D000EA57FE4FA591B4918FB7F894EC9111119E
:1008E00008C0D095DE23DC938FBFDF91CF911F919D
:1008F0000895DE2BF8CFCF93DF9390E0FC01E0501A
:10090000FE4F249186549E4FFC0184918823D1F0A0
:1009100090E0880F991FFC01E459FE4FA591B49116
:10092000FC01EA57FE4FC591D491623071F49FB734
:10093000F8943C91822F809583238C93E8812E2B11
:1009400028839FBFDF91CF9108958FB7F894EC91E2
:100950002E2B2C938FBFF6CF3FB7F89480911107C1
:1009600090911207A0911307B091140726B5A89B88
:1009700005C02F3F19F00196A11DB11D3FBFBA2F31
:10098000A92F982F8827BC01CD01620F711D811DF1
:10099000911D42E0660F771F881F991F4A95D1F776
:1009A00008958F929F92AF92BF92CF92DF92EF9273
:1009B000FF924B015C010E94AC046B017C010E9420
:1009C000AC046C197D098E099F09683E734081054E
:1009D0009105A8F321E0821A9108A108B10888EED8
:1009E000C80E83E0D81EE11CF11C81149104A104FF
:1009F000B10429F7FF90EF90DF90CF90BF90AF90B8
:100A00009F908F900895EF92FF920F931F93CF9333
:100A1000DF93EC01F12CE12C10E000E08091840ADE
:100A20009091850ADC01ED91FC910084F185E02D27
:100A30001995892BB1F461E070E080E090E00E94AC
:100A4000D104BFEFEB1AFB0A88EEE81683E0F80644
:100A500028F38FEFDF91CF911F910F91FF90EF90CF
:100A600008958091840A9091850ADC01ED91FC91B2
:100A70000284F385E02D1995982F0930110590F522
:100A8000F8018827E95BFA4F8F4F0C943213500519
:100A900058056205620562056205670569056C0512
:100AA0009F3E09F0BBCF188299830F5F1F4FB6CFCF
:100AB00028813981292B3983288321303F4EA9F39E
:100AC0008EEFC8CFFE01E00FF11F9083EECF9E8323
:100AD000ECCF1F829887E9CF2F813885292B388763
:100AE0002F83E3CFFE01E00FF11F80832F81388534
:100AF000C801089782179307C1F680E0ABCF08952D
:100B000090E080E00895FC019B01BA0181E09FEE36
:100B10009183808381E08683308727838FEF828370
:100B2000838384838583A901CF0109960C944113A3
:100B3000CF93DF93CDB7DEB7CB54D1090FB6F8947E
:100B4000DEBF0FBECDBF92E02B969FAF2B972C96AA
:100B50008FAF2C97AE01465B5F4F62E070E0CE0135
:100B600001960E948305CE0101960E94B501CE0137
:100B700001960E94030581110EC08F81873059F4C0
:100B80008A85C55BDF4F0FB6F894DEBF0FBECDBFC1
:100B9000DF91CF91089581E0F4CFCF93DF93CDB76C
:100BA000DEB7CA54D1090FB6F894DEBF0FBECDBF71
:100BB00081E02B968FAF2B97AE01465B5F4F61E0D4
:100BC00070E0CE0101960E948305CE0101960E943D
:100BD000B501CE0101960E94030581110EC08F81DF
:100BE000873059F48A85C65BDF4F0FB6F894DEBFB5
:100BF0000FBECDBFDF91CF91089581E0F4CFCF93A9
:100C0000DF93EC0160E08E810E944D0461E08E81F3
:100C10000E944D0460E08E810E944D048BE891E0BB
:100C20000197F1F7DF91CF910895CF92DF92EF9284
:100C3000FF920F931F93CF93DF936C017C0187E0AA
:100C4000E80EF11CD0E0C0E0062F10E0B8010C2E39
:100C500002C0759567950A94E2F76170F70181917A
:100C60007F010E944D042196C430D10579F7C60159
:100C7000DF91CF911F910F91FF90EF90DF90CF9078
:100C80000C94FF05CF92DF92EF92FF920F931F9388
:100C9000CF93DF93EC01F62E642F8C810E944D04DC
:100CA0008D818F3F19F060E00E944D040F2D10E000
:100CB0008F8584FF25C06E0187E0C80ED11CF12C02
:100CC000E12CB8010E2C02C0759567950A94E2F7E5
:100CD0006170F60181916F010E944D04FFEFEF1AE0
:100CE000FF0A88E0E816F10461F7CE01DF91CF91A9
:100CF0001F910F91FF90EF90DF90CF900C94FF0524
:100D0000B80184E0759567958A95E1F7CE010E9458
:100D100015066F2DCE01DF91CF911F910F91FF909E
:100D2000EF90DF90CF900C94150640E0682F8AE892
:100D30009AE00C94420681E00E9495068BE39FE1C5
:100D40000197F1F70895CF93DF93823029F49091C2
:100D5000990A98609093990A80939D0A10929E0A2E
:100D600080E480939F0A80E18093A00A80E58093CD
:100D7000A10A61E080918E0A0E947B0480918F0A13
:100D80008F3F19F061E00E947B0461E08091900A3E
:100D90000E947B04CAE8DAE09E012A583A4080911A
:100DA000990A84FD0BC084E090E02196281739074A
:100DB00044F461E08E810E947B04EECF88E090E0F5
:100DC000F4CF8BE39DE00197F1F760E080918E0A0C
:100DD0000E944D0460E08091900A0E944D04809131
:100DE0008F0A8F3F19F060E00E944D048091990AAC
:100DF00084FD34C063E08AE89AE00E941506CBE4E3
:100E0000D6E4CE010197F1F763E08AE89AE00E9408
:100E100015062197F1F763E08AE89AE00E9415062B
:100E200083E592E00197F1F762E08AE89AE00E9498
:100E300015068091990A80620E94950684E080934D
:100E40009A0A8CE00E9495060E949B0682E080939D
:100E50009B0A86E0DF91CF910C94950680620E94F8
:100E600095068BE496E40197F1F78091990A8062E8
:100E70000E94950683E592E00197F1F78091990A27
:100E800080620E949506D5CF90919D0A691710F057
:100E90006FEF690FE62FF0E0E657F54F9489890F61
:100EA00080680C94950641E00E94420681E090E043
:100EB0000895FB0101900020E9F73197AF01461B2F
:100EC000570BDC01ED91FC910280F381E02D199428
:100ED0008F929F92AF92BF92EF92FF920F931F93C8
:100EE000CF93DF93CDB7DEB7A1970FB6F894DEBFEF
:100EF0000FBECDBF7C01FA01CB0119A2223008F44C
:100F00002AE08E010F5D1F4F822E912CB12CA12C57
:100F1000BF01A50194010E941013F901CA016A30B2
:100F20000CF5605DD8016E938D01232B242B252BAE
:100F300079F790E080E0109721F0BD01C7010E9491
:100F40005907A1960FB6F894DEBF0FBECDBFDF9153
:100F5000CF911F910F91FF90EF90BF90AF909F9016
:100F60008F900895695CDECFCF93DF93BC0188E159
:100F700099E00E945907EC0160E272E088E199E093
:100F80000E9459078C0F9D1FDF91CF910895CF923A
:100F9000DF92EF92FF920F931F93CF93DF9383E043
:100FA0000E9424046C0182E00E9424047C0185E0FC
:100FB0000E9424048C0184E00E942404EC0180E05F
:100FC000CD2859F483E292E00E94B40764EF71E007
:100FD00080E090E00E94D10481E0EF2859F484E39E
:100FE00092E00E94B40764EF71E080E090E00E941C
:100FF000D10482E0012BC9F485E492E00E94B40799
:1010000064EF71E080E090E00E94D10483E0CD2B9A
:1010100089F486E592E00E94B40764EF71E080E015
:1010200090E00E94D10484E005C0CD2B91F3882389
:1010300009F4B5CFDF91CF911F910F91FF90EF9001
:10104000DF90CF900895CF93DF93262FAC0170E00F
:1010500060E088E199E00E946807EC0160E272E0DC
:1010600088E199E00E9459078C0F9D1FDF91CF9175
:101070000895CF93DF93482F50E070E060E02AE0BE
:1010800088E199E00E946807EC0160E272E088E183
:1010900099E00E9459078C0F9D1FDF91CF91089511
:1010A000CF92DF92EF92FF92CF93DF936C01990F73
:1010B000EE08FF08F7FE23C06DE288E199E00E9488
:1010C0000803EC0144275527BA014C195D096E0944
:1010D0007F092AE088E199E00E946807C80FD91FBC
:1010E00060E272E088E199E00E9459078C0F9D1F31
:1010F000DF91CF91FF90EF90DF90CF9008952AE09D
:10110000B701A60188E199E00E946807EC01E8CFE9
:101110000C9459071F920F920FB60F9211240BB621
:101120000F922F933F934F935F936F937F938F9380
:101130009F93AF93BF93EF93FF9385EB99E00E944A
:10114000E602FF91EF91BF91AF919F918F917F91B7
:101150006F915F914F913F912F910F900BBE0F9028
:101160000FBE0F901F9018951F920F920FB60F92FF
:1011700011240BB60F922F938F939F93EF93FF93AE
:10118000E091C509F091C6098081E091CB09F09109
:10119000CC0982FD1DC090818091CE098F5F8F7335
:1011A0002091CF09821741F0E091CE09F0E0EB5495
:1011B000F64F958F8093CE09FF91EF919F918F917C
:1011C0002F910F900BBE0F900FBE0F901F90189590
:1011D0008081F2CF1F920F920FB60F9211240BB69F
:1011E0000F922F933F934F935F936F937F938F93C0
:1011F0009F93AF93BF93EF93FF9388E199E00E9491
:10120000E602FF91EF91BF91AF919F918F917F91F6
:101210006F915F914F913F912F910F900BBE0F9067
:101220000FBE0F901F9018951F920F920FB60F923E
:1012300011240BB60F922F938F939F93EF93FF93ED
:10124000E0912809F09129098081E0912E09F0911F
:101250002F0982FD1DC09081809131098F5F8F73AE
:1012600020913209821741F0E0913109F0E0E85E07
:10127000F64F958F80933109FF91EF919F918F9158
:101280002F910F900BBE0F900FBE0F901F901895CF
:101290008081F2CF1F920F920FB60F9211242F93DD
:1012A0003F938F939F93AF93BF9380910D0790913E
:1012B0000E07A0910F07B091100730910C0723E0A3
:1012C000230F2D3758F50196A11DB11D20930C0752
:1012D00080930D0790930E07A0930F07B09310070C
:1012E0008091110790911207A0911307B0911407F4
:1012F0000196A11DB11D8093110790931207A09331
:101300001307B0931407BF91AF919F918F913F91B5
:101310002F910F900FBE0F901F90189526E8230F66
:101320000296A11DB11DD2CF1F920F920FB60F9240
:1013300011240BB60F922F933F938F939F93AF93EC
:10134000BF93CF93DF93EF93FF93E0911707F09153
:101350001807309749F0A685B7859585868D81FF5A
:1013600014C08C918923A1F4FF91EF91DF91CF916B
:10137000BF91AF919F918F913F912F910F900BBE95
:101380000F900FBE0F901F9018958C91892361F7D5
:10139000A389B4899C918589809589238C938689BA
:1013A00097890197F1F7208D318DC685D78588E023
:1013B000D9011197F1F798818150D1F780911607E3
:1013C00090E001968F73992720911507281779F0DF
:1013D0009091160780931607828D938D0197F1F7F0
:1013E000A389B4898C919589892B8C93BDCF868DE7
:1013F0008160868FF1CFCF93DF93C5EBD9E01B825D
:101400001A8248EE53E060E070E04C835D836E83A7
:101410007F8386E092E0998388832DEC30E03D87DE
:101420002C872CEC30E03F872E8728EC30E0398B7E
:10143000288B29EC30E03B8B2A8B2AEC30E03D8B6B
:101440002C8B2EEC30E03F8B2E8B198E1A8E1B8E40
:101450001C8EE8E1F9E0138212824483558366838F
:1014600077839183808385EC90E09587848784ECF3
:1014700090E09787868780EC90E0918B808B81EC61
:1014800090E0938B828B82EC90E0958B848B86EC42
:1014900090E0978B868B118E128E138E148EEAE855
:1014A000FAE01382128288E192E09183808388E0DF
:1014B00084838FEF858389E086838AE087838BE04E
:1014C00080878CE081878DE082871386148615865D
:1014D0001686178681E00E94A306E2E5FAE01782ED
:1014E00016821186108620E430E033872287158625
:1014F00014868FEF9FEFDC0186879787A08BB18BD7
:10150000338B228B20E031EE358B248B168A178AA1
:10151000108E118E828F938FA48FB58F15AA14AA67
:10152000D7ABC6ABD3ABC2ABDF91CF910895CF930E
:10153000DF93CDB7DEB7CF54D1090FB6F894DEBF35
:101540000FBECDBF789484B5826084BD84B58160C0
:1015500084BD85B5826085BD85B5816085BD80917E
:101560006E00816080936E001092810080918100F6
:1015700082608093810080918100816080938100EE
:10158000809180008160809380008091B1008460B0
:101590008093B1008091B00081608093B000809111
:1015A000910082608093910080919100816080938E
:1015B0009100809190008160809390008091A100C3
:1015C00082608093A1008091A10081608093A1003E
:1015D0008091A00081608093A000809121018260B1
:1015E000809321018091210181608093210180916C
:1015F000200181608093200180917A008460809333
:101600007A0080917A00826080937A0080917A00DB
:10161000816080937A0080917A00806880937A005C
:101620001092C10061E08FE20E947B0461E081E3DF
:101630000E947B0461E083E30E947B0461E085E318
:101640000E947B04E0912809F091290902E00083BF
:10165000E0912409F09125091082E0912609F0918A
:1016600027098FEC808310923009E0912C09F091CA
:101670002D0916E01083E0912A09F0912B09808151
:1016800080618083E0912A09F0912B098081886034
:101690008083E0912A09F0912B0980818068808302
:1016A000E0912A09F0912B0980818F7D808364E687
:1016B00070E080E090E00E94D10482E00E94A306E6
:1016C00068EE73E080E090E00E94D104E091880A27
:1016D000F091890A309731F1A089B1890C93A089E2
:1016E000B1891C92A485B5851C92A685B78580E139
:1016F0008C93108EA489B5891C93A289B3898C918F
:1017000080618C93A289B3898C9188608C93A28923
:10171000B3898C9180688C930288F389E02D808155
:101720008F7D8083E091860AF091870A309709F4D3
:1017300099C0138E128E118E108E178A168A82E42B
:1017400090E0958F848F848596EF980F943048F0C1
:101750002EEC280F243028F022EC280F283008F037
:1017600055C02FE030E0378B268B20E430E0318FFE
:10177000208F27E230E0338F228F943050F02EEC10
:10178000280F243030F022EC280FB0E0A0E0283001
:1017900010F4A8E6B0E02C91943028F032EC380F29
:1017A000383008F495C031E0232B943048F09EEC9B
:1017B000980F943028F08E53B0E0A0E0883010F4F9
:1017C000A8E6B0E02C93248536EF320F343008F4CD
:1017D00081C08EEC820F843008F47CC082EC820FD2
:1017E000883008F07AC08DE690E0948B838B34309B
:1017F00008F076C02650330B81E001C0880F2A958F
:10180000EAF7858B848D958D0197F1F7828D938D05
:10181000892B41F14091170750911807E417F507FC
:1018200009F14115510569F0DA0153962D913C916A
:10183000D9019C91DA0155968C9180958923D90123
:101840008C93868D8E7F868F1092160710921507C7
:10185000F0931807E0931707A389B4898C919589B1
:10186000892B8C9383E12B968FAF2B978091680AFD
:101870009091690A20916A0A30916B0A2C963FAFC9
:101880002C972D962FAF2D972E969FAF2E972F9694
:101890008FAF2F97AE01465B5F4F65E070E0CE01E2
:1018A00001960E948305CE0101960E94B501CE01EA
:1018B00001960E940305882341F187E692E00E9489
:1018C000B40761E070E080E090E00E94D104F9CFBD
:1018D00034E06ACF8BE690E088CF90E080E085CF5F
:1018E00088E0223309F48DCF84E0233309F489CFD3
:1018F00082E0243309F485CF82EC820F883018F41B
:101900002E53330B79CF81E07CCF8F818730A9F6BE
:101910008A858111D2CF8AE892E00E94B40788EECE
:1019200092E00E94550360E272E088E199E00E9433
:1019300059078FE02B968FAF2B97AE01465B5F4F19
:1019400061E070E0CE0101960E948305CE01019610
:101950000E94B501CE0101960E94030581115AC073
:101960008F81873009F056C08B859C859827892701
:1019700098279093590A8093580A8D859E859827B9
:101980008927982790935B0A80935A0A8F859889B4
:1019900098278927982790935D0A80935C0A898904
:1019A0009A8998278927982790935F0A80935E0ADF
:1019B0006B897C898D899E890E943A136093600AA5
:1019C0007093610A8093620A9093630A8F89988D5D
:1019D0009827892798279093650A8093640A00972F
:1019E00009F0FCC180E290E09093650A8093640A5C
:1019F000898D9A8D98278927982740E855E2849FFA
:101A00009001859F300D949F300D11243093670A0B
:101A10002093660A8DED92E00E94550360E170E02C
:101A20008091580A9091590A0E94230882ED92E011
:101A30000E94550360E170E080915A0A90915B0A20
:101A40000E94230887EC92E00E9455036AE070E050
:101A500080915C0A90915D0A0E94230886EB92E0D7
:101A60000E9455036AE070E080915E0A90915F0ADF
:101A70000E94230885EA92E00E9455034091600A83
:101A80005091610A6091620A7091630A20E188E1D5
:101A900099E00E94680760E272E088E199E00E94A4
:101AA000590788E992E00E9455036AE070E080914E
:101AB000640A9091650A0E9423088CE892E00E94D3
:101AC00055036AE070E08091660A9091670A0E946F
:101AD000230862E082E00E947B0462E083E00E94CF
:101AE0007B0462E084E00E947B0462E085E00E9467
:101AF0007B048DE12B968FAF2B97AE01465B5F4F3A
:101B000061E070E0CE0101960E948305CE0101964E
:101B10000E94B501CE0101960E94030581110CC0FF
:101B20008F81873049F48B859C8598278927982752
:101B30009093570A8093560A8091560A9091570ABB
:101B4000892B09F05DC164EA72E088E199E00E94A6
:101B5000880854E0F52E65E0E62E76E0D72E8AE27E
:101B600093E00E94B40786E393E00E94B4070E94CA
:101B70009B0660E080E00E9444076AE273E08AE826
:101B80009AE00E94880861E080E00E94440765E5D1
:101B900073E08AE89AE00E9488080E94C70790E0F4
:101BA000909317098093160962E673E088E199E043
:101BB0000E94880880911609909117090E94500888
:101BC0008091160990911709009709F405C2813098
:101BD000910509F05FC310921709109216090E942F
:101BE0009B0660E080E00E94440763E773E08AE8B8
:101BF0009AE00E94880861E080E00E94440760E863
:101C000073E08AE89AE00E9488088EE893E00E94D8
:101C1000B40788EA93E00E94B4070E94C70790E0E7
:101C2000E0910002F0910102EE0FFF1FE85EF74F16
:101C300091838083892B09F4CFC10E949B0660E0C9
:101C400080E00E94440760EC73E08AE89AE00E941A
:101C5000880861E080E00E94440767EC73E08AE84E
:101C60009AE00E94880883ED93E00E94B40782EF17
:101C700093E00E94B40780910002809317088823A4
:101C800009F4AAC10E949B0660E080E00E9444071C
:101C90006DE374E08AE89AE00E94880860E08AE0D8
:101CA0000E9444074091170850E070E060E02AE08D
:101CB0008AE89AE00E94680760ED77E080E090E0B3
:101CC0000E94D1040E949B0660E080E00E944407CD
:101CD00067E474E08AE89AE00E94880861E080E0A6
:101CE0000E944407E0910002F0910102EE0FFF1FF5
:101CF000E85EF74F80809180092C000CAA08BB0891
:101D00002AE0B501A401B7FE0EC041E06DE28AE809
:101D10009AE00E94420644275527BA0148195909FA
:101D20006A097B092AE08AE89AE00E94680764E56C
:101D300074E088E199E00E948808809117080E9469
:101D4000390863E674E088E199E00E948808E09130
:101D50000002F0910102EE0FFF1FE85EF74F808155
:101D600091810E9450088091000290910102019699
:101D700090930102809300020E949B0660E080E045
:101D80000E94440763E774E08AE89AE00E948808AA
:101D90006EE774E088E199E00E9488088091170856
:101DA0000E9439080E94CD05813009F488C008F4EA
:101DB00041C0823009F472C0833009F48FC00E94A0
:101DC0009B0660E080E00E94440768E075E08AE8D6
:101DD0009AE00E94880886E195E06EC08130910506
:101DE00019F480E490E000CE8230910519F480E887
:101DF00090E0FACD039709F0FBCD80E091E0F4CDBF
:101E000082EF92E00E94B4076EE073E088E199E00F
:101E10000E9488084091560A5091570A70E060E08D
:101E20002AE088E199E00E9468078FE193E00E9430
:101E3000B4078FCE0E949B0660E080E00E944407BA
:101E400066EA74E08AE89AE00E94880882EB94E0EF
:101E50000E94B40781E00E949805863009F4ACC066
:101E6000A8F4882309F449C0813009F4B8C00E945D
:101E70009B0660E080E00E94440768E075E08AE825
:101E80009AE00E94880886E195E0A4C0873009F4B2
:101E9000DEC0853161F78FE895E09CC00E949B060B
:101EA00060E080E00E9444076EEB74E08AE89AE00C
:101EB0000E9488088CE093E00E94B40773CF0E94D0
:101EC0009B0660E080E00E94440764EC74E08AE8CE
:101ED0009AE00E94880888ED94E0EECF0E949B066D
:101EE00060E080E00E9444076CEE74E08AE89AE0CB
:101EF0000E9488088AEF94E0DFCF0E949B0660E092
:101F000080E00E94440764E275E08AE89AE00E945B
:101F1000880884E395E00E94B4070E949B0660E075
:101F200080E00E94440764E475E08AE89AE00E9439
:101F3000880882E595E00E94B40760ED77E080E0D4
:101F400090E00E94D1040E94CD058230E1F763EB5E
:101F500075E088E199E00E948808809117080E9446
:101F600039080E949B0660E080E00E94440767EB0E
:101F700075E08AE89AE00E94880887EC95E00E9464
:101F8000B4070E94CD05813009F481C0B8F18230D8
:101F900009F46AC0833009F489C00E949B0660E09E
:101FA00080E00E94440768E075E08AE89AE00E94B9
:101FB000880886E195E0E3CF0E949B0660E080E020
:101FC0000E94440760E675E08AE89AE00E9488086B
:101FD0008CE695E00E94B4070E949003C0CD0E9459
:101FE0009B0660E080E00E9444076CE775E08AE8A9
:101FF0009AE00E94880888ED94E0ECCF0E949B064E
:1020000060E080E00E94440766EA74E08AE89AE0B3
:102010000E94880882EB94E00E94B40782E00E944C
:102020009805863049F278F4882309F44EC081304F
:1020300009F4DCC00E949B0660E080E00E94440737
:1020400064EF74E01CCF873011F0853199F70E945E
:102050009B0660E080E00E94440764EF74E08AE839
:102060009AE00E94880817CF0E949B0660E080E0FB
:102070000E9444076EEB74E08AE89AE00E948808A8
:102080006CE073E088E199E00E9488087ACF0E94B2
:102090009B0660E080E00E94440764EC74E08AE8FC
:1020A0009AE00E94880888ED94E069CF0E949B0620
:1020B00060E080E00E9444076CEE74E08AE89AE0F9
:1020C0000E9488088AEF94E05ACF0E949B0660E045
:1020D00080E00E94440764E275E08AE89AE00E948A
:1020E000880884E395E00E94B4076FED75E088E10D
:1020F00099E00E948808809117080E9439082B9661
:10210000EFAE2B97AE01465B5F4F61E070E0CE0112
:1021100001960E948305CE0101960E94B501CE0171
:1021200001960E940305811104C08F811A858730B2
:1021300009F011E0812F90E0009709F054C00E944F
:102140009B0660E080E00E94440764EF75E08AE847
:102150009AE00E94880882E096E00E94B40763EB50
:1021600075E088E199E00E948808809117080E9434
:102170003908809117082B96DFAE2B9791E02C96AB
:102180009FAF2C972D961FAE2D972E968FAF2E9723
:10219000AE01465B5F4F64E070E0CE0101960E94A5
:1021A0008305CE0101960E94B501CE0101960E94E1
:1021B0000305811104C08F811A85873009F011E071
:1021C000812F90E0009761F50E949B0660E080E01F
:1021D0000E94440767E376E08AE89AE00E94880854
:1021E0008EE396E0F7CE8130910549F40E949B067C
:1021F00060E080E00E94440764EF74E0F8CE0A9744
:10220000A9F50E949B0660E080E00E94440762E11D
:1022100076E08AE89AE00E9488088CE196E0DACEBF
:102220008130910519F38B30910579F40E949B065A
:1022300060E080E00E94440764EF74E08AE89AE07E
:102240000E94880886E496E0C5CE489779F40E94FB
:102250009B0660E080E00E94440764EF74E08AE837
:102260009AE00E94880887E696E0B4CE0E949B061A
:1022700060E080E00E94440764EF74E08AE89AE03E
:102280000E94880886E195E00E94B407112309F4B2
:1022900073CDA2CE029709F09FCE1092170910922B
:1022A00016090E94CD05813091F1A8F0823009F421
:1022B00050C0833009F464C00E949B0660E080E057
:1022C0000E94440764EF74E08AE89AE00E9488085C
:1022D00086E195E04CC00E949B0660E080E00E9491
:1022E000440762EB74E08AE89AE00E94880882EB77
:1022F00094E00E94B40781E00E949805863009F4BA
:10230000B4C0A0F4882309F44AC08130A9F60E9421
:102310009B0660E080E00E94440764EF74E08AE876
:102320009AE00E94880888ED94E021C0873011F07F
:10233000853111F60E949B0660E080E00E94440710
:1023400064EF74E08AE89AE00E9488088FE895E0DC
:102350000EC00E949B0660E080E00E9444076EE78A
:1023600076E08AE89AE00E94880888E896E00E9471
:10237000B40762E370E080E090E00E94D1042CCECC
:102380000E949B0660E080E00E94440764EF74E0D6
:102390008AE89AE00E9488088AEF94E0E8CF0E94D9
:1023A0009B0660E080E00E94440764E375E08AE8F1
:1023B0009AE00E94880884E395E00E94B4072E9674
:1023C0001FAE1EAE2E972B96FFAE2B9781E02C965C
:1023D0008FAF2C9780915C0A90915D0A2F969FAFEA
:1023E0002F9760968FAF6097AE01465B5F4F66E0B8
:1023F00070E0CE0101960E948305CE0101960E94F5
:10240000B501CE0101960E940305811180CF8F8115
:10241000873009F07CCF8B859C8598278927982762
:102420009093530A8093520A8D859E859827892719
:1024300098279093550A8093540A8A85882321F11E
:10244000813009F464CF893009F036CF0E949B06B1
:1024500060E080E00E94440764EF74E08AE89AE05C
:102460000E9488088FEE96E082CF0E949B0660E073
:1024700080E00E94440760E675E08AE89AE00E94E6
:1024800088088CE695E073CF0E949B0660E080E0B0
:102490000E9444076AEF75E08AE89AE00E94880883
:1024A0008BE996E00E94B4078BE996E00E94B4079E
:1024B0000E949B0660E080E00E94440760EB76E0AB
:1024C0008AE89AE00E94880860E08AE00E94440757
:1024D0004091520A5091530A70E060E02AE08AE885
:1024E0009AE00E94680769EB76E088E199E00E9433
:1024F00088084091520A5091530A70E060E02AE047
:1025000088E199E00E94680784EC96E00E94B40795
:10251000E0911708F0E0EE0FFF1FE85EF74F8081B3
:1025200091810E9450086AED76E088E199E00E946E
:1025300088086AE070E08091540A9091550A0E94E0
:1025400023080091170810E0000F111FF801E75E43
:10255000F84FA080B180B3E0AB16B1049CF00E94AC
:102560009B0660E080E00E94440764E077E08AE830
:102570009AE00E94880860ED77E080E090E00E9499
:10258000D104F7CEF801E85EF74F80819181813068
:102590009105B9F461E08FE20E944D0468E873E1AF
:1025A00080E090E00E94D10460E08FE20E944D0440
:1025B000F801E75EF84F8FEFA81AB80AB182A0823F
:1025C000D8CE8230910569F461E081E30E944D0428
:1025D00068E873E180E090E00E94D10460E081E36C
:1025E000E5CF8330910569F461E083E30E944D04F7
:1025F00068E873E180E090E00E94D10460E083E34A
:10260000D5CF0497A9F661E085E30E944D0468E800
:1026100073E180E090E00E94D10460E085E3C6CFE2
:10262000A1E21A2EAA1BBB1BFD010DC0AA1FBB1FD6
:10263000EE1FFF1FA217B307E407F50720F0A21B48
:10264000B30BE40BF50B661F771F881F991F1A94B5
:1026500069F760957095809590959B01AC01BD01DF
:10266000CF010895EE0FFF1F881F8BBF0790F691D3
:10267000E02D1994692796276927782787277827D7
:102680000895FB01DC0102C001900D9241505040C1
:08269000D8F70895F894FFCF7C
:102698000100000000000803680295027003C602EA
:1026A800A402B802000000005307680280057F05F5
:1026B8000D0A006B6579203120697320707265738B
:1026C800736564006B6579203220697320707265C8
:1026D80073736564006B65792033206973207072A9
:1026E8006573736564006B657920342069732070A5
:1026F80072657373656400446964206E6F74206644
:10270800696E642066696E6765727072696E74209E
:1027180073656E736F72203A2800466F756E642079
:1027280066696E6765727072696E742073656E7320
:102738006F72210053656E736F7220646F65736EDC
:10274800277420636F6E7461696E20616E792066EC
:10275800696E6765727072696E7420646174612E47
:1027680020506C656173652072756E2074686520F1
:1027780027656E726F6C6C27206578616D706C656B
:102788002E0057616974696E6720666F72207661E2
:102798006C69642066696E6765722E2E2E0053651B
:1027A8006E736F7220636F6E7461696E73200020A0
:1027B80074656D706C617465730043686F6F7365E1
:1027C800204D6F6465005072657373203120746FFB
:1027D80020456E726F6C6C20616E64203220746FBD
:1027E800205573650050726573732031206F722015
:1027F8003200456E726F6C6C696E67204D6F646550
:1028080020230043686F6F7365204472696E6B0004
:10281800507265737320312C322C332C340052657E
:1028280061647920746F20656E726F6C6C20666FBE
:1028380072206472696E6B00506C6561736520501C
:102848007265737320312C20322C20332C203400F5
:10285800456E726F6C6C0046696E6765727072695E
:102868006E7400526561647920746F20656E726FB2
:102878006C6C20612066696E6765727072696E742F
:102888002100506C65617365207479706520696EEC
:10289800207468652049442023202866726F6D20C3
:1028A8003120746F203132372920796F7520776194
:1028B8006E7420746F207361766520746869732064
:1028C80066696E6765722061732E2E2E00456E72E2
:1028D8006F6C6C204944004472696E6B2043686FCA
:1028E80069636500456E726F6C6C696E6720494458
:1028F800202300456E726F6C6C696E6720447269A4
:102908006E6B005075742046696E6765720057617A
:102918006974696E6720666F722076616C696420DD
:1029280066696E67657220746F20656E726F6C6C75
:10293800206173202300496D6167652054616B65D0
:102948006E00496D6167652074616B656E00416753
:1029580061696E00436F6D6D756E69636174696F4F
:102968006E204572726F7200436F6D6D756E69638C
:102978006174696F6E206572726F7200496D61676C
:10298800696E67204572726F7200496D6167696E82
:1029980067206572726F7200556E6B6E6F776E206E
:1029A8004572726F7200556E6B6E6F776E2065722E
:1029B800726F7200496D61676520436F6E7665724C
:1029C80074656400496D61676520636F6E76657232
:1029D8007465640052656D6F76652046696E67653B
:1029E800720052656D6F76652066696E6765720064
:1029F800496D616765204D6573737900496D61673D
:102A08006520746F6F206D6573737900436F6D6D0A
:102A1800756E69636174696F6E204572726F0043E9
:102A28006F756C64206E6F742066696E64206669C9
:102A38006E6765727072696E74206665617475720E
:102A4800657300494420005075742053616D6520FA
:102A580046696E67657200506C6163652073616DCD
:102A6800652066696E67657220616761696E0043FB
:102A780072656174696E67206D6F64656C20666F3E
:102A8800722023005072696E74204D61746368650A
:102A980064005072696E7473206D61746368656454
:102AA80021004E6F74204D617463680046696E673B
:102AB80065727072696E747320646964206E6F74D5
:102AC800206D617463680053746F72656400537499
:102AD8006F7265642100436F756C64206E6F74209B
:102AE80073746F726520696E2074686174206C6FEE
:102AF800636174696F6E004572726F7220777269D4
:102B080074696E6720746F20666C617368004E6F1D
:102B18002066696E676572004E6F2066696E67652C
:102B28007220646574656374656400466F756E64CD
:102B38002061207072696E74206D61746368210071
:102B4800466F756E6420494400466F756E6420496F
:102B580044202300596F7572204472696E6B2043BC
:102B6800686F6963652069733A0020776974682023
:102B7800636F6E666964656E6365206F66200044E6
:102B88006964206E6F742066696E642061206D61CF
:0C2B9800746368004E6F204D6F72650082
:00000001FF
