S01000004D454741323536302E737265632D
S1130000EAC2000009C3000007C3000005C30000E2
S113001003C3000001C30000FFC20000FDC20000D2
S1130020FBC20000F9C20000F7C20000F5C20000E4
S1130030F3C20000F1C20000EFC20000EDC20000F4
S1130040EBC200000C943E0EE7C20000E5C20000C3
S1130050E3C20000E1C20000DFC20000DDC2000014
S1130060DBC20000D9C20000D7C20000D5C2000024
S1130070D3C20000D1C20000CFC20000CDC2000034
S1130080CBC20000C9C20000C7C20000C5C2000044
S11300900C94370BC1C20000BFC20000BDC20000F7
S11300A0BBC20000B9C20000B7C20000B5C2000064
S11300B0B3C20000B1C20000AFC20000ADC2000074
S11300C0ABC20000A9C20000A7C20000A5C2000084
S11300D0A3C20000A1C200009FC200009DC2000094
S11300E09BC20000DF04E604F004F004F004F00412
S11300F0F504F804FC046364696E6F7073757858D2
S11301005B00204F4B200D0A002C20002578003086
S1130110780054696D6564206F75740D0A003C2D78
S1130120200025780D0A002C203078002578002C3A
S1130130203078002578002C203078002578002C99
S1130140203078002578002C203078002578002C89
S1130150203078002578002C203078002578002C79
S1130160203078002578002C203078002578002C69
S1130170203078002578002C203078002578002D58
S11301803E2030780025750D0A00426175642072A6
S11301906174653A200025690D0A005061636B653E
S11301A074206C656E3A2000256C780D0A00446555
S11301B07669636520616464726573733A2000250F
S11301C0750D0A005365637572697479206C6576E0
S11301D0656C3A200025690D0A004361706163690A
S11301E074793A200025780D0A0053797320494424
S11301F03A2030780025780D0A00537461747573C1
S11302003A2030780052656164696E672073656EC8
S1130210736F7220706172616D65746572730D0A1B
S11302200025690D0A0054656D706C617465204386
S11302306F756E743A2000446964206E6F74206692
S1130240696E642066696E6765727072696E742087
S113025073656E736F72203A280D0A00466F756ECF
S1130260642066696E6765727072696E7420736566
S11302706E736F72210D0A00556E6B6E6F776E2070
S11302806572726F720D0A004572726F7220777216
S11302906974696E6720746F20666C6173680D0AF7
S11302A000436F756C64206E6F742073746F726595
S11302B020696E2074686174206C6F636174696F67
S11302C06E0D0A00436F6D6D756E69636174696FBD
S11302D06E206572726F720D0A0053746F726564DA
S11302E0210D0A00556E6B6E6F776E206572726F0A
S11302F0720D0A0046696E6765727072696E747376
S113030020646964206E6F74206D617463680D0AE3
S113031000436F6D6D756E69636174696F6E2065FE
S113032072726F720D0A0025690D0A00494420009B
S11303305072696E7473206D617463686564210D15
S11303400A00556E6B6E6F776E206572726F720D58
S11303500A00436F756C64206E6F742066696E6466
S11303602066696E6765727072696E742066656175
S113037074757265730D0A00436F756C64206E6F3B
S1130380742066696E642066696E6765727072694E
S11303906E742066656174757265730D0A00436F2F
S11303A06D6D756E69636174696F6E206572726FCD
S11303B0720D0A00496D61676520746F6F206D6569
S11303C07373790D0A0025690D0A0043726561741F
S11303D0696E67206D6F64656C20666F72202320E0
S11303E000496D61676520636F6E7665727465643C
S11303F00D0A00556E6B6E6F776E206572726F72A8
S11304000D0A00496D6167696E67206572726F72CB
S11304100D0A00436F6D6D756E69636174696F6E6B
S1130420206572726F720D0A002E0D0A00496D610B
S113043067652074616B656E0D0A00506C616365BD
S11304402073616D652066696E67657220616761FE
S1130450696E0D0A0025690D0A0049442000556E95
S11304606B6E6F776E206572726F720D0A00436F48
S1130470756C64206E6F742066696E642066696EA4
S11304806765727072696E742066656174757265F1
S1130490730D0A00436F756C64206E6F7420666977
S11304A06E642066696E6765727072696E74206628
S11304B0656174757265730D0A00436F6D6D756EB9
S11304C069636174696F6E206572726F720D0A00E0
S11304D0496D61676520746F6F206D657373790D65
S11304E00A0052656D6F76652066696E6765720DE8
S11304F00A00496D61676520636F6E766572746585
S1130500640D0A00556E6B6E6F776E206572726FA4
S1130510720D0A00496D6167696E67206572726FBA
S1130520720D0A00436F6D6D756E69636174696F56
S11305306E206572726F720D0A002E0D0A00496DED
S11305406167652074616B656E0D0A0025780D0A7C
S11305500057616974696E6720666F722076616CFA
S113056069642066696E67657220746F20656E72B7
S11305706F6C6C20617320230025690D0A002077BD
S113058069746820636F6E666964656E6365206F65
S113059066200025690D0A00466F756E6420494483
S11305A020232000636C656172696E6720616C6C46
S11305B02066696E676572207072696E74730D0AC5
S11305C000416C6C205472696573204578706972BF
S11305D065640D0A000011241FBECFEFD1E2DEBF17
S11305E0CDBF00E00CBF14E0A0E0B2E0EEE0FBE21F
S11305F000E00BBF02C007900D92A636B107D9F7F1
S113060025E0A6E6B4E001C01D92A231B207E1F7ED
S11306100E946B0D0C948515F3CCA6E6B4E021E0A2
S11306203FEE11963C932E9316968C93169718963C
S11306307C936E9317978FEF12968C931297139661
S11306408C93139714968C93149715968C9360340B
S1130650710540F4FA01AB01BF018FE694E00C94FC
S1130660090F089580E4FA01AFE6B4E001900D9219
S11306708A95E1F708958F929F92AF92BF92CF929D
S1130680DF92EF92FF921F93CF93DF93C6E6D4E0FD
S11306908981E5D78881E3D78A81E1D78B81DFD748
S11306A08C81DDD78D81DBD78E81D9D7CF80D8845B
S11306B082E0C80ED11CED2CFF248E2DD0D78C2DBA
S11306C0CED78FE791E09F938F930E94120F898179
S11306D01F928F938CE791E09F938F930E94120F48
S11306E087E791E09F938F930E94120F88819981ED
S11306F099279F938F9384E791E09F938F930E9410
S1130700120F8FE691E09F938F930E94120F8A81BC
S11307101F928F938CE691E09F938F930E94120F08
S113072087E691E09F938F930E94120F8B811F9213
S11307308F9384E691E09F938F930E94120F8FE52D
S113074091E09F938F930E94120F8C811F928F933D
S11307508CE591E09F938F930E94120F87E591E0BF
S11307609F938F930E94120FEDB7FEB7B0960FB60A
S1130770F894FEBF0FBEEDBF8D811F928F9384E569
S113078091E09F938F930E94120F8FE491E09F93C7
S11307908F930E94120F8E811F928F938CE491E0AD
S11307A09F938F930E94120F87E491E09F938F93FE
S11307B00E94120FFF92EF9284E491E09F938F9333
S11307C00E94120F8FE391E09F938F930E94120F68
S11307D0DD24DF92CF928CE391E09F938F930E946C
S11307E0120FCE0CDF1C8E817601E80EF11C8DB742
S11307F09EB746960FB6F8949EBF0FBE8DBF8F81ED
S11308009885892B89F110E04E010F2EF7E3AF2E66
S1130810F1E0BF2EF02D0F2EF4E3CF2EF1E0DF2E0A
S1130820F02DC12FD0E0CA59DB4F898518D78985AF
S1130830E80EF11CBF92AF920E94120F89851F929D
S11308408F93DF92CF920E94120F1F5F212F30E00F
S11308500F900F900F900F900F900F90F4018781DD
S1130860908528173907E8F28F2DF9D68E2DF7D603
S11308708FE291E09F938F930E94120F1F92FF9239
S11308808CE291E09F938F930E94120F87E291E094
S11308909F938F930E94120FFF24FF92EF9282E2A4
S11308A091E09F938F930E94120F8DB79EB70C9681
S11308B00FB6F8949EBF0FBE8DBFDF91CF911F91ED
S11308C0FF90EF90DF90CF90BF90AF909F908F906C
S11308D008953F924F925F926F927F928F929F9270
S11308E0AF92BF92CF92DF92EF92FF920F931F933A
S11308F0CF93DF934C018EE191E09F938F930E94FD
S1130900120F0F900F9000E010E0C0E0D0E00F2E27
S1130910FFE0CF2EF1E0DF2EF02D0F2EFCE0EF2EC6
S1130920F1E0FF2EF02D0F2EF9E06F2EF1E07F2E77
S1130930F02D0F2EF6E6AF2EF4E0BF2EF02D0F2E85
S1130940412CFFEE5F2EF02D15C08FE99FE001973B
S1130950F1F700C000000F5F1F4F0815190550F094
S113096082E191E09F938F930E94120F0F900F905A
S11309708FEF62C049D6882341F34FD6382EDF92D9
S1130980CF920E94120F1F923F92FF92EF920E9409
S1130990120F7F926F920E94120FEDB7FEB7389636
S11309A00FB6F894FEBF0FBEEDBFC930D10558F5A0
S11309B0FE018827EE58FF4F8F4F0C94010FFFEE76
S11309C03F12D8CFF5015182408233C0F5018081B6
S11309D0918183299183808381309F4E51F12BC073
S11309E0FE01EA59FB4F308224C0F501368221C052
S11309F0F501178230861DC0F50187819085832912
S1130A009087878316C0FE01EA59FB4F3082F501B7
S1130A1027813085CE0108978217930751F482E02D
S1130A2091E09F938F930E94120F0F900F9080E09C
S1130A3003C021969FCF8EEFDF91CF911F910F912D
S1130A40FF90EF90DF90CF90BF90AF909F908F90EA
S1130A507F906F905F904F903F900895CF93DF9376
S1130A6000D01F921F92CDB7DEB783E189838091B6
S1130A70AF049091B0042091B1043091B2043A8350
S1130A802B839C838D83AE014F5F5F4F65E070E0E5
S1130A9081E0C3DD2FEF81EE94E02150804090404F
S1130AA0E1F700C00000E7DD88EE93E012DF81117A
S1130AB00BC080916C04873049F481E090916F04FD
S1130AC0911105C080E003C081E001C081E00F9076
S1130AD00F900F900F900F90DF91CF910895BEDF8C
S1130AE091E0811190E0892F0895CF93F8DFC82F0A
S1130AF0882349F08CE592E09F938F930E94120F14
S1130B000F900F9008C087E392E09F938F930E9409
S1130B10120F0F900F908C2FCF910895CF93DF93E6
S1130B201F92CDB7DEB78FE08983AE014F5F5F4F71
S1130B3061E070E081E071DD2FEF81EE94E02150FF
S1130B4080409040E1F700C0000095DD88EE93E01E
S1130B50C0DE81118CC080916C04873009F089C09B
S1130B60E6E6F4E0828590E0982F88272385822B9F
S1130B709093B8048093B704848590E0982F8827D5
S1130B802585822B9093B6048093B504868590E0E6
S1130B90982F88272785822B909309028093080237
S1130BA0808990E0982F88272189822B9093B40420
S1130BB08093B3042289838990E0A0E0B0E0DC0153
S1130BC099278827B22B2589822B2489922B8093FD
S1130BD0040290930502A0930602B093070286894B
S1130BE090E0982F88272789822B009739F480E298
S1130BF090E0909303028093020222C08130910519
S1130C0039F480E490E0909303028093020218C0C8
S1130C108230910539F480E890E090930302809348
S1130C2002020EC08330910529F090930302809351
S1130C30020206C080E091E09093030280930202D6
S1130C40E6E6F4E0808D90E0982F8827218D822BB2
S1130C5040E855E2849F9001859F300D949F300DAC
S1130C6011243093010220930002818503C081E0A6
S1130C7001C081E00F90DF91CF91089585E092E06B
S1130C809F938F930E94120F49DF8AEF91E09F9305
S1130C908F930E94120F8091B8048F938091B704B0
S1130CA08F9385EF91E09F938F930E94120F8AEEAA
S1130CB091E09F938F930E94120F8091B6048F93BB
S1130CC08091B5048F9385EE91E09F938F930E945A
S1130CD0120F8AED91E09F938F930E94120F8091DF
S1130CE009028F93809108028F9385ED91E09F9381
S1130CF08F930E94120F84EC91E09F938F930E9434
S1130D00120F8091B4048F938091B3048F938FEB6F
S1130D1091E09F938F930E94120F8EEA91E09F932C
S1130D208F930E94120F809107028F938091060285
S1130D308F93809105028F93809104028F9388EAA8
S1130D4091E09F938F930E94120F8DB79EB7829666
S1130D500FB6F8949EBF0FBE8DBF8BE991E09F93B1
S1130D608F930E94120F809103028F93809102024D
S1130D708F9386E991E09F938F930E94120F8AE8E4
S1130D8091E09F938F930E94120F809101028F93A1
S1130D90809100028F9385E891E09F938F930E9446
S1130DA0120F8DB79EB70C960FB6F8949EBF0FBE68
S1130DB08DBF0895CF93DF931F92CDB7DEB781E047
S1130DC08983AE014F5F5F4F61E070E026DC2FEF57
S1130DD081EE94E0215080409040E1F700C0000093
S1130DE04ADC88EE93E075DD811107C080916C04C4
S1130DF0873029F480916F0403C081E001C081E051
S1130E000F90DF91CF910895CF93DF931F921F929C
S1130E10CDB7DEB792E099838A83AE014F5F5F4F0F
S1130E2062E070E081E0F9DB2FEF81EE94E0215085
S1130E3080409040E1F700C000001DDC88EE93E0A4
S1130E4048DD811107C080916C04873029F48091BA
S1130E506F0403C081E001C081E00F900F90DF9127
S1130E60CF910895CF93DF931F92CDB7DEB785E07E
S1130E708983AE014F5F5F4F61E070E081E0CDDBBD
S1130E802FEF81EE94E0215080409040E1F700C0C4
S1130E900000F1DB88EE93E01CDD811107C0809136
S1130EA06C04873029F480916F0403C081E001C091
S1130EB081E00F90DF91CF910895CF93DF9300D01D
S1130EC01F92CDB7DEB726E0298321E02A839B83D6
S1130ED08C83AE014F5F5F4F64E070E081E09DDB87
S1130EE02FEF81EE94E0215080409040E1F700C064
S1130EF00000C1DB88EE93E0ECDC811107C0809137
S1130F006C04873029F480916F0403C081E001C030
S1130F1081E00F900F900F900F90DF91CF91089583
S1130F20CF93DF9300D000D0CDB7DEB786E0EAE1FF
S1130F30F2E0DE01119601900D928A95E1F7AE017F
S1130F404F5F5F4F66E070E081E067DB2FEF81EE7B
S1130F5094E0215080409040E1F700C000008BDB1A
S1130F6088EE93E0B6DC81111CC080916C0487305C
S1130F70D1F4E6E6F4E0828590E0982F8827238573
S1130F80822B9093C3048093C204848590E0982FAD
S1130F9088272585822B9093C7048093C604818576
S1130FA003C081E001C081E026960FB6F894DEBF4D
S1130FB00FBECDBFDF91CF910895FCDE811135C006
S1130FC081E022DF811134C0ABDF811134C088E9B4
S1130FD095E09F938F9326D78091C3048F9380913C
S1130FE0C2048F9383E995E09F938F931BD78EE779
S1130FF095E09F938F9316D78091C7048F93809128
S1131000C6048F9389E795E09F938F930BD78091C4
S1131010C2049091C3042DB73EB7245F3F4F0FB66F
S1131020F8943EBF0FBE2DBF08958FEF9FEF089534
S11310308FEF9FEF08958FEF9FEF0895CF93DF9386
S11310401F92CDB7DEB78DE18983AE014F5F5F4F4D
S113105061E070E081E0E1DA2FEF81EE94E021506D
S113106080409040E1F700C0000005DB88EE93E08B
S113107030DC811112C080916C04873081F4E6E683
S1131080F4E0828590E0982F88272385822B909323
S1131090C5048093C404818503C081E001C081E05C
S11310A00F90DF91CF910895C9DF86E292E09F937C
S11310B08F93B8D68091C5048F938091C4048F9385
S11310C081E292E09F938F93ADD60F900F900F9093
S11310D00F900F900F908091C4049091C5040895CF
S11310E04F925F926F927F928F929F92AF92BF9234
S11310F0CF92DF92EF92FF920F931F93CF93DF93E0
S1131100CDB7DEB764970FB6F894DEBF0FBECDBF80
S1131110CBDF01E0080FEFD52B013C0181E595E021
S11311209F938F937FD61F920F938CE495E09F93A8
S11311308F9378D660E880E292E077D31F921F9273
S11311401F928AE08F9381E392E09F938F931F9283
S113115084E18F939E012F5F3F4F79013F932F933B
S11311609BD660ECC70161D30FB6F894DEBF0FBE07
S1131170CDBF0F2EF4E28F2EF5E09F2EF02D0F2E13
S1131180FAE3AF2EF5E0BF2EF02D0F2EF4E0CF2EB4
S1131190F5E0DF2EF02D0F2EF4E1EF2EF5E0FF2E1B
S11311A0F02D08DE182FA7D5DC01CB018419950991
S11311B0A609B70981319742A105B10530F060E86D
S11311C087E492E032D380E008C21130A1F028F025
S11311D0123059F01330A9F01AC08EE395E09F93B2
S11311E08F9320D60F900F9019C0BF92AF921AD64A
S11311F00F900F90D6CF9F928F9214D60F900F908E
S1131200D0CFFF92EF920ED60F900F90CACFDF92FD
S1131210CF9208D60F900F901111C3CF81E0F4DD67
S1131220863049F128F4882351F0813089F157C080
S1131230873009F43AC0853109F444C050C082EFC4
S113124094E09F938F93EED582EE94E09F938F93D7
S1131250E9D560E887E592E0E8D23FEF87EA91E6D6
S1131260315080409040E1F700C000000F900F9093
S11312700F900F9041C080ED94E09F938F93D2D54F
S113128060E888E692E0D1D20F900F9080E0A5C18B
S11312908AEB94E09F938F93C5D560E888E692E04B
S11312A0C4D20F900F9080E098C184E994E09F939A
S11312B08F93B8D560E888E692E0B7D20F900F908C
S11312C080E08BC18EE694E09F938F93ABD560E86A
S11312D088E692E0AAD20F900F9080E07EC18EE55E
S11312E094E09F938F939ED560E888E692E09DD228
S11312F00F900F9080E071C15DDD8230E9F78AE5DF
S113130094E09F938F938ED51F920F9385E594E07D
S11313109F938F9387D58BE394E09F938F9382D58C
S113132060E888E792E081D260EC89E892E07DD2BF
S11313300FB6F894DEBF0FBECDBF0F2EF9E28F2E8D
S1131340F4E09F2EF02D0F2EF3EFAF2EF3E0BF2E1F
S1131350F02D0F2EF3E0CF2EF4E0DF2EF02D0F2E24
S1131360F3E1EF2EF4E0FF2EF02D24DD182F813071
S1131370A1F028F0823059F08330A9F01AC08DE230
S113138094E09F938F934ED50F900F9019C09F9226
S11313908F9248D50F900F90E8CFFF92EF9242D5ED
S11313A00F900F90E2CFDF92CF923CD50F900F9029
S11313B0DCCFBF92AF9236D50F900F901111D5CFDD
S11313C082E022DD863049F128F4882351F081300F
S11313D089F157C0873009F43AC0853109F444C013
S11313E050C081EE93E09F938F931CD58BEC93E0D8
S11313F09F938F9317D51F920F9386EC93E09F933F
S11314008F9310D52FDD90E00FB6F894DEBF0FBE9A
S1131410CDBF009709F060C041C084EB93E09F9377
S11314208F9300D560E888E692E0FFD10F900F908B
S113143080E0D3C08EE993E09F938F93F3D460E868
S113144088E692E0F2D10F900F9080E0C6C088E762
S113145093E09F938F93E6D460E888E692E0E5D129
S11314600F900F9080E0B9C082E593E09F938F9333
S1131470D9D460E888E692E0D8D10F900F9080E04C
S1131480ACC082E493E09F938F93CCD460E888E669
S113149092E0CBD10F900F9080E09FC080E393E067
S11314A09F938F93BFD48CE293E09F938F93BAD48E
S11314B01F920F9387E293E09F938F93B3D4802F6F
S11314C090E0FBDC90E00FB6F894DEBF0FBECDBF1A
S11314D0009709F047C02CC08130910569F481E17F
S11314E093E09F938F939ED460E888E692E09DD129
S11314F00F900F9080E071C00A9769F484EF92E036
S11315009F938F938FD460E888E692E08ED10F90FA
S11315100F9080E062C084EE92E09F938F9382D418
S113152060E888E692E081D10F900F9080E055C08A
S11315308AED92E09F938F9375D460E88AE992E0F4
S113154074D160EC8CEA92E070D13FEF83ED90E3CC
S1131550315080409040E1F700C000000F900F90A0
S113156081E03BC08130910569F484EC92E09F9363
S11315708F9358D460E888E692E057D10F900F908B
S113158080E02BC08B30910569F481EA92E09F934F
S11315908F9348D460E888E692E047D10F900F908B
S11315A080E01BC0489769F488E892E09F938F938A
S11315B039D460E888E692E038D10F900F9080E04B
S11315C00CC088E792E09F938F932CD460E888E660
S11315D092E02BD10F900F9080E064960FB6F894B0
S11315E0DEBF0FBECDBFDF91CF911F910F91FF9052
S11315F0EF90DF90CF90BF90AF909F908F907F90AF
S11316006F905F904F9008952091BA049091B9041F
S113161081E0291301C080E00895E091B904F0E06D
S1131620E853FB4F80819091B9049F5F9093B90474
S11316309091B904913410F01092B9040895109265
S1131640CD0080E18093CC00EAECF0E080818660FC
S11316508083E9ECF0E08081886980830895E8EC78
S1131660F0E0908195FFFDCF8093CE0008951F9206
S11316700F920FB60F9211240BB60F928F93EF9324
S1131680FF93E091BA04F0E08091CE00E853FB4F61
S113169080838091BA048F5F8093BA048091BA04E6
S11316A0813410F01092BA04FF91EF918F910F9052
S11316B00BBE0F900FBE0F901F9018952F98882384
S11316C00CF42F9A2E9886FD2E9A2D9885FD2D9A2E
S11316D02C9884FD2C9AE2E0F1E080818064808380
S11316E085E38A95F1F7000080818F7B808385E311
S11316F08A95F1F700000895CF93C82FE2E0F1E056
S113170080818062808380818F7B80838C2FD6DF71
S11317108C2F8295807FD2DFCF9108950F931F93F2
S1131720CF93FC018081882381F08F01C0E0E4DF46
S1131730CF5F8FE391E00197F1F700C00000F8015B
S1131740EC0FF11D80818111F2CFCF911F910F9188
S11317500895CF93C82FE2E0F1E080818F7D8083EC
S113176080818F7B80838C2FA9DF8C2F8295807F53
S1131770A5DFCF9108952FEF81EE94E021508040B2
S11317809040E1F700C00000E2E0F1E080818F7D4D
S1131790808380818F7B808380E390DF8FE39CE96B
S11317A00197F1F700C0000080E388DF8FE193E048
S11317B00197F1F700C0000080E380DF8FE193E040
S11317C00197F1F700C0000088E278DF8FE391E031
S11317D00197F1F700C0000088E2BBDF8FE391E0DE
S11317E00197F1F700C0000088E0B3DF8FE391E0D8
S11317F00197F1F700C0000081E0ABDF8FE79EE3C3
S11318000197F1F700C0000086E0A3DF8FE391E0C9
S11318100197F1F700C000008CE09BDF8FE391E0BB
S11318200197F1F700C000000895CF93DF93EC0116
S1131830603851F481E08DDF8FE79EE30197F1F783
S113184000C0000080E801C080EC83DF8FE391E0FA
S11318500197F1F700C00000CE0160DFDF91CF9166
S11318600895279A269A259A249AE1E0F1E0808146
S1131870806480838081806280832FEF89E698E191
S1131880215080409040E1F700C0000074DF60E820
S11318908EEB92E0CADF60EC8FEC92E0C6CF089545
S11318A06D986C986B989D98759A749A739AA59A8A
S11318B0119A139A159A179A099A0B9A0D9A0F9AD4
S11318C00895EF92FF920F931F93CF93DF93CDB7B9
S11318D0DEB764970FB6F894DEBF0FBECDBF81505C
S11318E0082F10E0000F111FC8010E946B15E82E8D
S11318F00F5F1F4FC8010E946B15F82E882309F44F
S11319006BC060E880EE92E090DF60EC80EF92E0E4
S11319108CDF22E0E216C9F02E1520F081E0E816F3
S113192041F036C093E0E916E1F024E0E21629F133
S11319302FC011988FEF9BE722E9815090402040FF
S1131940E1F700C00000119A23C013988FEF9BE7C2
S113195022E9815090402040E1F700C00000139A32
S113196017C015988FEF9BE722E9815090402040E3
S1131970E1F700C00000159A0BC017988FEF9BE7A2
S113198022E9815090402040E1F700C00000179AFE
S11319906FEF6F0DC8010E94731560E880E093E05B
S11319A044DF8F2D90E001979F938F9380E193E024
S11319B09F938F931F9284E18F938E010F5F1F4F2C
S11319C01F930F9369D260ECC8012FDF0FB6F89410
S11319D0DEBF0FBECDBF0BC081EC95E09F938F930C
S11319E021D260E882E293E020DF0F900F906496AA
S11319F00FB6F894DEBF0FBECDBFDF91CF911F911C
S1131A000F91FF90EF900895CF92DF92EF92FF92A3
S1131A101F93CF93DF93CDB7DEB764970FB6F894D7
S1131A20DEBF0FBECDBF40DB880F991F7C01E89459
S1131A30E0F821E0F22260E882E393E0F6DE60EC75
S1131A4083E493E0F2DE659B06C0649B04C0639B61
S1131A5002C09599F8CF1CB1649B06C015FB1127F1
S1131A6010F991E0192701C012E0639B13E0959BE4
S1131A7014E01F921F9380E193E09F938F931F9232
S1131A8084E18F93CE0101966C019F938F9304D2CE
S1131A9060E8C601CADE60EC84E593E0C6DE612F2F
S1131AA0C7010E94731565E0C70101960E94731572
S1131AB00FB6F894DEBF0FBECDBF64960FB6F89490
S1131AC0DEBF0FBECDBFDF91CF911F91FF90EF908E
S1131AD0DF90CF900895E4DE60E074E284EF90E05C
S1131AE0F2D02DD1BEDE2FEF83ED90E32150804064
S1131AF09040E1F700C00000A2DD8FE19EE4019771
S1131B00F1F700C0000078940E947505882349F01D
S1131B1060E885E693E089DE60EC85E793E085DEA6
S1131B2008C060E885E693E080DE60EC85E893E039
S1131B307CDEA4D8B9DA9093C1048093C004DBD0CE
S1131B406093BC047093BD048093BE049093BF045F
S1131B50FF24F394C4EAD5E08091C0049091C104B9
S1131B60892BE9F02ADA90930B0280930A02181663
S1131B70190664F4A6DE1092BB04BDD06093BC04C5
S1131B807093BD048093BE049093BF049FEF20E73D
S1131B9082E0915020408040E1F700C00000659B46
S1131BA006C0649B04C0639B02C0959920C005DAFB
S1131BB0992354F495DA882379F026DF75DA909323
S1131BC0C1048093C00408C060E885E993E02DDE79
S1131BD060EC8DEA92E029DE1092BB049FEF27EAC5
S1131BE081E6915020408040E1F700C0000083D09E
S1131BF00091BC041091BD042091BE043091BF0437
S1131C00DC01CB01801B910BA20BB30B803D9740F1
S1131C10A105B105B8F08091BB04811106C060E84C
S1131C208EEB92E002DEF092BB0460EC8FEC92E06B
S1131C30FCDD61D06093BC047093BD048093BE044A
S1131C409093BF049AD0882391F0DF93CF93EAD086
S1131C5060E886EA93E0E9DD4ED06093BC047093BB
S1131C60BD048093BE049093BF040F900F908FE344
S1131C709CE90197F1F700C000006ECF1F920F920C
S1131C800FB60F9211248F939F93AF93BF938091BC
S1131C90080590910905A0910A05B0910B050196DC
S1131CA0A11DB11D8093080590930905A0930A0511
S1131CB0B0930B05BF91AF919F918F910F900FBE81
S1131CC00F901F90189520E43FE140E050E077D05A
S1131CD0E1E8F0E080818A608083BB27A52F942F00
S1131CE0832F8093890020938800EFE6F0E08081C1
S1131CF0826080830895F8946091080570910905C5
S1131D0080910A0590910B0578940895E0ECF0E039
S1131D10908195FFFDCF8093C60080E090E0089508
S1131D20CF93BC01E0ECF0E090819923ECF7C091F3
S1131D30C6008C2FEBDF8C2F90E0CF91089510928A
S1131D40C50087E68093C400E2ECF0E08081866001
S1131D508083E1ECF0E0808188618083ECE0F5E051
S1131D608CE092E0938382839183808308958091B1
S1131D70C000881F8827881F0895CF93DF931F9280
S1131D80CDB7DEB71982F3DF8823A1F0CE01019627
S1131D909F938F9387EB93E09F938F936AD099815E
S1131DA09F7D81E00F900F900F900F90943419F065
S1131DB080E001C080E00F90DF91CF910895A1E20F
S1131DC01A2EAA1BBB1BFD010DC0AA1FBB1FEE1FB1
S1131DD0FF1FA217B307E407F50720F0A21BB30BFC
S1131DE0E40BF50B661F771F881F991F1A9469F778
S1131DF060957095809590959B01AC01BD01CF01D4
S1131E000895EE0FFF1F881F8BBF0790F691E02DFA
S1131E101994FB01DC0102C001900D924150504025
S1131E20D8F708950F931F93CF93DF93CDB7DEB701
S1131E30AE01485F5F4FDA016D917D91AD010CE019
S1131E4015E0F80182819381DC0113962C9113979C
S1131E50286013962C935CD0D8011296ED91FC91D6
S1131E6013972381277F2383DF91CF911F910F91B4
S1131E700895CF93DF93CDB7DEB7AE014A5F5F4FCE
S1131E80FA0161917191AF0180910C0590910D055A
S1131E90EED3DF91CF9108950F931F93CF93DF93E8
S1131EA0CDB7DEB72E970FB6F894DEBF0FBECDBF09
S1131EB00E891F89888D998D26E02C831A830983C6
S1131EC097FF02C080E090E801979E838D83AE0166
S1131ED0445E5F4F6A8D7B8DCE01019619D04D8192
S1131EE05E8157FD0AC02F813885421753070CF4D1
S1131EF09A01F801E20FF31F10822E960FB6F894A0
S1131F00DEBF0FBECDBFDF91CF911F910F9108951A
S1131F102F923F924F925F926F927F928F929F92F5
S1131F20AF92BF92CF92DF92EF92FF920F931F93E3
S1131F30CF93DF93CDB7DEB72B970FB6F894DEBF00
S1131F400FBECDBF6C017B018A01FC011782168292
S1131F50838181FFBFC1CE0101963C01F6019381CB
S1131F60F70193FD859193FF81917F01882309F403
S1131F70ADC1853239F493FD859193FF81917F0141
S1131F80853221F4B60190E0F0D4E8CF912C212CD5
S1131F90312CFFE1F315D8F08B3279F038F480322C
S1131FA079F08332A1F4232D20611DC08D3261F0BC
S1131FB0803369F4232D216016C0832D8260382E6E
S1131FC0E32DE4603E2E2AC0F32DF8601DC037FCDB
S1131FD02DC020ED280F2A3040F08E32B9F436FCA3
S1131FE075C1232D2064322E19C036FE06C08AE046
S1131FF0989E200D1124922E11C0EAE02E9E200DF1
S11320001124222EF32DF0623F2E08C08C3621F4C9
S1132010832D8068382E02C0883641F4F70193FD81
S1132020859193FF81917F018111B3CF982F9F7D7B
S11320309554933028F40C5F1F4F9FE399830DC090
S1132040833631F0833771F0833509F055C020C0F1
S1132050F801808189830E5F1F4F88248394912C1B
S1132060530112C02801F2E04F0E511CF801A08068
S1132070B18036FE03C0692D70E002C06FEF7FEFC0
S1132080C5012AD44C018201F32DFF773F2E15C0E0
S1132090280122E0420E511CF801A080B18036FED6
S11320A003C0692D70E002C06FEF7FEFC50109D452
S11320B04C01F32DF0683F2E820133FC19C0822DB0
S11320C090E088169906A0F4B60180E290E04DD421
S11320D02A94F5CFF50137FC859137FE81915F0194
S11320E0B60190E042D421102A9421E0821A91088A
S11320F08114910479F7E1C0843611F0893639F5F9
S1132100F80137FE07C060817181828193810C5F81
S11321101F4F08C060817181072E000C880B990B3A
S11321200E5F1F4FF32DFF763F2E97FF09C090954A
S11321308095709561957F4F8F4F9F4FF0683F2E2C
S11321402AE030E0A30166D4882E861844C085377F
S113215031F4232D2F7EB22E2AE030E025C0932DBA
S1132160997FB92E8F36C1F018F4883579F0AEC056
S1132170803719F0883721F0A9C0E92FE061BE2E1D
S1132180B4FE0DC0FB2DF460BF2E09C034FE0AC09E
S1132190292F2660B22E06C028E030E005C020E1D9
S11321A030E002C020E132E0F801B7FE07C06081F0
S11321B07181828193810C5F1F4F06C060817181A0
S11321C080E090E00E5F1F4FA30124D4882E861870
S11321D0FB2DFF773F2E36FE0DC0232D2E7FA22E22
S11321E0891458F434FE0BC032FC09C0832D8E7E52
S11321F0A82E05C0B82CA32C03C0B82C01C0B92C40
S1132200A4FE0FC0FE01E80DF11D8081803321F48E
S11322109A2D997EA92E09C0A2FE06C0B394B39448
S113222004C08A2D867809F0B394A3FC10C0A0FEE4
S113223006C0B21480F4280C922C9B180DC0B21462
S113224058F4B60180E290E090D3B394F8CFB2147E
S113225018F42B1802C0982C212CA4FE0FC0B60130
S113226080E390E082D3A2FE16C0A1FC03C088E7FD
S113227090E002C088E590E0B6010CC08A2D867813
S113228051F0A1FE02C08BE201C080E2A7FC8DE206
S1132290B60190E06AD3891430F4B60180E390E08B
S11322A064D39A94F8CF8A94F301E80DF11D8081E8
S11322B0B60190E05AD38110F6CF222009F44ECE15
S11322C0B60180E290E051D32A94F7CFF6018681DB
S11322D0978102C08FEF9FEF2B960FB6F894DEBF65
S11322E00FBECDBFDF91CF911F910F91FF90EF9063
S11322F0DF90CF90BF90AF909F908F907F906F9022
S11323005F904F903F902F90089520FD09C0FC01ED
S113231023FD05C022FF02C073836283518340837F
S1132320089544FD17C046FD17C0AB01BC01DA0196
S1132330FB01AA0FBB1FEE1FFF1F1094D1F74A0F1A
S11323405B1F6E1F7F1FCB01BA01660F771F881FAB
S1132350991F09C033E001C034E0660F771F881F5E
S1132360991F3150D1F7620F711D811D911D089580
S11323700F931F93CF93DF938C01C801B8D2EC0164
S113238097FD06C08BD2892BC1F7B801CE0129D3A2
S1132390CE01DF91CF911F910F9108958F929F925B
S11323A0AF92BF92EF92FF920F931F93CF93DF935D
S11323B08C01D62F7A01B22E9AD29C0133272B326C
S11323C0310531F02D32310559F48B2D8068B82E4A
S11323D0D15011F480E061C0C80189D297FDFACFD1
S11323E0CB2DCD7F2B2D2073F9F48033E9F4AA246F
S11323F0AA94AD0E09F43EC0C80179D297FD3AC043
S11324009C012F7D33272835310541F4C264D25015
S113241089F1C8016CD297FF07C02CC0B6FE02C078
S1132420C26001C0C261DA2D812C912C540120EDCF
S1132430280F283078F0C4FF03C0B801D2D217C0E7
S11324402A3040F0C6FFF9CF2F7D3FEE320F3630F1
S1132450A0F727504C2FC501B40163DF4B015C0189
S1132460C260D15051F0C80142D297FFE0CFC1FD04
S113247004C0B0CF812C912C5401C7FF08C0B09484
S1132480A09490948094811C911CA11CB11C2C2FAD
S1132490B501A401C70139DF81E0DF91CF911F911C
S11324A00F91FF90EF90BF90AF909F908F90089501
S11324B05F926F927F928F929F92AF92BF92CF92D0
S11324C0DF92EF92FF920F931F93CF93DF93CDB7D9
S11324D0DEB7A0970FB6F894DEBF0FBECDBF5C0188
S11324E0962E7A01F9018E010F5F1F4F680180E279
S11324F0D8011D928A95E9F7D50113968C9080E056
S113250090E0612C712C30E061E070E083FC259157
S113251083FE21918F01522E211103C080E090E0AF
S113252090C02E3511F4009751F1432F50E0481715
S113253059073CF42D3559F12D3219F4772009F15E
S113254003C0772009F468C0452D46954695469505
S1132550D601A40FB11D452D47708B0102C0000F99
S1132560111F4A95E2F7A8015C91452B4C93651421
S113257059F0561410F45394E7CF5A94E5CF31E050
S113258004C07724739401C0712C0196BFCF7720C7
S113259019F08E8180628E83311103C08824839464
S11325A017C0F6019E012F5D3F4F80818095819376
S11325B02E173F07D1F7F2CFE114F10429F0D70128
S11325C08C93F70131967F019A94812C9920E9F03C
S11325D0C5018DD197FD17C0FC01FF2723E0F595B8
S11325E0E7952A95E1F7EC0DFD1D208130E0AC0163
S11325F04770552702C0359527954A95E2F720FD87
S1132600DBCFB501EED1811089CFE114F10411F0D3
S1132610D7011C92C80115C0422F46954695469590
S1132620D601A40FB11D422F47708B0102C0000FC9
S1132630111F4A95E2F7A8015C91452B4C93622E39
S1132640A4CFA0960FB6F894DEBF0FBECDBFDF9126
S1132650CF911F910F91FF90EF90DF90CF90BF909B
S1132660AF909F908F907F906F905F9008955F924E
S11326706F927F928F929F92AF92BF92CF92DF928E
S1132680EF92FF920F931F93CF93DF936C01EB01B3
S11326905A01FC0117821682512CF601E380FE01D7
S11326A0E3FC8591E3FE8191182FEF01882309F45F
S11326B0E0C090E0F3D0892B19F0C60159DEEDCFCC
S11326C0153241F4FE01E3FC1591E3FE1191EF0193
S11326D0153271F4C6010BD197FDC9C0412F50E0EA
S11326E09C01332724173507C1F2B6017AD1C1C042
S11326F01A3239F4E3FC1591E3FE1191EF0101E084
S113270001C000E0F12C20ED210F2A3078F40260A2
S11327106F2D70E080E090E040E203DEF62EFE01D3
S1132720E3FC1591E3FE1191EF01EDCF01FF03C02E
S1132730F11003C09EC0FF24FA94183619F01C3619
S113274051F010C0FE01E3FC1591E3FE1191EF017D
S1132750183641F408600460FE01E3FC1591E3FEC1
S11327601191EF01112309F484C0612F70E086EF09
S113277090E09CD0892B09F47CC000FD07C0F501D2
S113278080809180C50102965C0102C0812C912C4D
S11327901E3649F4F6014681578160E070E0202F2F
S11327A0C401B3DD7ACF1336A1F401FD02C0FF24C6
S11327B0F394C6019CD097FD5AC08114910429F06A
S11327C0F4018083C40101964C01FA94F110F1CF15
S11327D04AC01B3551F49E01A4016F2DC60168DE69
S11327E0EC01892B09F03FC039C0C601C1DD97FD5A
S11327F03EC01F3649F128F4143621F1193639F157
S113280025C0133771F01537E9F020C08114910405
S113281029F0F4016082C40101964C01FA94FF206E
S113282059F0C60164D03C0197FD06C037D0892B0E
S113283069F3B601C301D5D081149104A1F0F40168
S1132840108211C0006203C0006101C00064202F27
S1132850A4016F2DC601A2DD811105C0F60183819B
S1132860807329F406C000FD18CF539416CF552069
S113287019F0852D90E002C08FEF9FEFDF91CF918B
S11328801F910F91FF90EF90DF90CF90BF90AF908A
S11328909F908F907F906F905F900895911118C1D1
S11328A0803219F089508550D0F70895FC010590C5
S11328B0061621F00020D9F7C00108953197CF0101
S11328C00895FC010590615070400110D8F780957F
S11328D090958E0F9F1F0895FC01615070400190E8
S11328E00110D8F7809590958E0F9F1F0895CF9370
S11328F0DF93EC012B8120FF33C026FF0AC02F7B1E
S11329002B838E819F8101969F838E838A8190E0A1
S113291029C022FF0FC0E881F9818081082E000CB4
S1132920990B009719F420622B831AC03196F9830E
S1132930E8830EC0EA85FB85199597FF09C02B81B2
S1132940019611F080E201C080E1822B8B8308C0E4
S11329502E813F812F5F3F4F3F832E83992702C0F3
S11329608FEF9FEFDF91CF9108950F931F93CF9334
S1132970DF93FB01238121FD03C08FEF9FEF2CC068
S113298022FF16C04681578124813581421753079F
S113299044F4A081B1819D012F5F3F4F3183208397
S11329A08C93268137812F5F3F4F3783268314C052
S11329B08B01EC01FB010084F185E02D1995892B35
S11329C0E1F6D80116968D919C911797019617966A
S11329D09C938E931697CE01DF91CF911F910F9107
S11329E00895FB01238120FF12C026FD10C08F3FF4
S11329F03FEF930761F082832F7D20642383268138
S1132A0037812150310937832683992708958FEF21
S1132A109FEF0895FA01AA27283051F1203181F15E
S1132A20E8946F936E7F6E5F7F4F8F4F9F4FAF4FD2
S1132A30B1E03ED0B4E03CD0670F781F891F9A1FE5
S1132A40A11D680F791F8A1F911DA11D6A0F711D99
S1132A50811D911DA11D20D009F468943F912AE0A5
S1132A60269F11243019305D3193DEF6CF0108958D
S1132A70462F4770405D4193B3E00FD0C9F7F6CFBE
S1132A80462F4F70405D4A3318F0495D31FD405286
S1132A90419302D0A9F7EACFB4E0A695979587951C
S1132AA077956795BA95C9F70097610571050895FB
S1132AB09B01AC010A2E06945795479537952795A7
S1132AC0BA95C9F7620F731F841F951FA01D08953F
S1132AD0992788270895F999FECF92BD81BDF89A68
S1132AE0992780B50895262FF999FECF92BD81BD0F
S1132AF0F89A019700B4021639F01FBA20BD0FB638
S1112B00F894FA9AF99A0FBE0895F894FFCF4C
S1132B0E00E14000FFFFFFFF4000FFFF0000000355
S1132B1E00000000860E900E00001B01000000A3B2
S1132B2E20506C61636520612046696E6765722072
S1132B3E0020696E202530326C75205365636F6EEC
S1132B4E647320202020002054696D654F75742015
S1132B5E4F6363757220002052656D6F7665204653
S1132B6E696E67657220200020204572726F722094
S1132B7E4F636375722020002020506C61636520C2
S1132B8E53616D652020202000202046696E676504
S1132B9E7220416761696E202000202020537563E6
S1132BAE6365737366756C6C792020002020202079
S1132BBE5265676973746572656420202000203144
S1132BCE362A32204C43442044656D6F2020002069
S1132BDE77697468204650204D6F64756C652000CB
S1132BEE204F70656E696E672056616C76652000A5
S1132BFE772E722E7420746F2063686F696365007C
S1132C0E52656D61696E696E6720547269657300F1
S1132C1E2020202020202020256920202020202054
S1132C2E200020547269657320457870697265645A
S1132C3E20002020456E746572204F7074696F6E8B
S1132C4E732000507265737320312C322C33206F35
S1132C5E72203400202069732073656C656374657B
S1132C6E6420202000202046696E676572507269C8
S1132C7E6E74202000202053656E736F7220466F91
S1132C8E756E6420002020204E6F7420466F756E82
S1132C9E642020200020205573657220416C7265DB
S1132CAE616479202000436C656172696E67204D02
S1132CBE656D6F727920002563000D0A756E736958
S1132CCE676E656420696E74203D202575000D0ABB
S1132CDE68657861646563696D616C20756E73698E
S1132CEE676E656420696E74203D20252330347828
S1132CFE000D0A646F75626C65203D202530382EF8
S1132D0E3366000D0A7369676E656420696E7420FC
S1132D1E3D202564000D0A737472696E67203D2090
S1132D2E252D323073000D0A7072696E7466282276
S1132D3E5C720A737472696E67203D2025252D32EC
S1132D4E3073222C7538737472293B0025633B2033
S1132D5E4B657920636F64653A2025750D0A00482A
S1092D6E656C6C6F0000AF
S9030000FC
